:020000040800F2
:1000000000500020490600089906000899060008DB
:1000100099060008990600089906000800000000EB
:100020000000000000000000000000009906000829
:1000300099060008000000009906000871070008F2
:100040009906000899060008990600089906000814
:100050009906000899060008990600089906000804
:1000600099060008990600089906000899060008F4
:1000700099060008990600089906000899060008E4
:1000800099060008990600089906000899060008D4
:1000900099060008990600089906000899060008C4
:1000A00099060008990600089906000899060008B4
:1000B00099060008990600089906000899060008A4
:1000C0009906000899060008990600089906000894
:1000D0009906000899080008990600089906000882
:1000E000990600089906000800000000990600081B
:1000F0009906000899060008990600089906000864
:100100009906000899060008990600089906000853
:100110009906000899060008990600089906000843
:100120009906000899060008990600089906000833
:1001300010B5054C237833B9044B13B10448AFF321
:1001400000800123237010BD040000200000000087
:100150001809000808B5034B1BB103490348AFF366
:10016000008008BD000000000800002018090008F9
:1001700080B582B000AF0023FB710FE0FB790B4A22
:1001800012F81320FB7909495B000B445B78194690
:10019000104600F00DF8FB790133FB71FB792F2B32
:1001A000ECD9002318460837BD4680BD3009000849
:1001B00080B485B000AF03460A46FB711346BB719D
:1001C000FB791B09DBB20133BB73FB7903F00F032F
:1001D0007B730023FB73BB7B032B7DD0032B00F3CE
:1001E000B680012B02D0022B3BD0B0E07B7B072BEB
:1001F00017D85B4B1B687A7B92000F2101FA02F241
:10020000D2431146564A0B401360554B1B68B979CF
:100210007A7B920001FA02F21146514A0B431360B5
:1002200098E07B7B0F2B19D84D4B5B687A7B083AA3
:1002300092000F2101FA02F2D2431146484A0B40C4
:100240005360474B5B68B9797A7B083A920001FAB0
:1002500002F21146424A0B4353607BE00123FB73D9
:1002600078E07B7B072B17D83E4B1B687A7B92008C
:100270000F2101FA02F2D24311463A4A0B401360B1
:10028000384B1B68B9797A7B920001FA02F2114669
:10029000344A0B4313605DE07B7B0F2B19D8314B45
:1002A0005B687A7B083A92000F2101FA02F2D2438E
:1002B00011462C4A0B4053602A4B5B68B9797A7B14
:1002C000083A920001FA02F21146264A0B435360A3
:1002D00040E00123FB733DE07B7B072B17D8224BCB
:1002E0001B687A7B92000F2101FA02F2D243114679
:1002F0001D4A0B4013601C4B1B68B9797A7B920036
:1003000001FA02F21146184A0B43136022E07B7B8C
:100310000F2B19D8144B5B687A7B083A92000F2197
:1003200001FA02F2D24311460F4A0B4053600E4BC2
:100330005B68B9797A7B083A920001FA02F21146B9
:10034000094A0B43536005E00123FB7302E00123DC
:10035000FB7300BFFB7B18461437BD4680BC70475B
:1003600000080140000C01400010014080B485B03D
:1003700000AF03460A46FB711346BB71FB791B09AC
:10038000DBB20133BB73FB7903F00F037B730023F4
:10039000FB73BB7B032B28D0032B37DC012B02D054
:1003A000022B11D032E01E4BDB687A7B012101FA6F
:1003B00002F2D2431340B9797A7B01FA02F2114674
:1003C000174A0B43D36024E0164BDB687A7B01218C
:1003D00001FA02F2D2431340B9797A7B01FA02F2B0
:1003E0001146104A0B43D36013E00F4BDB687A7B56
:1003F000012101FA02F2D2431340B9797A7B01FA62
:1004000002F21146084A0B43D36002E00123FB735A
:1004100000BFFB7B18461437BD4680BC704700BF49
:1004200000080140000C01400010014080B485B07C
:1004300000AF0346FB710023FB73FB795B09BB73C1
:10044000FB793B2B0CD8FB7903F01F03FB71FB7985
:10045000012202FA03F1064ABB7B42F8231001E0B5
:100460000123FB73FB7B18461437BD4680BC7047E5
:1004700000E100E080B400AF034B044A1A6000BF03
:10048000BD4680BC704700BF0010024080000100E4
:1004900080B485B000AF0346FB80FB88254AA2FBF1
:1004A00003235B099BB2BB73FB88224AA2FB0312A6
:1004B0005209642101FB02F29B1A9BB27B73002359
:1004C000FB737B7B1F2B2DD8BB7B032B1CD0032BFB
:1004D00025DC012B02D0022B0BD020E0164B5B69F0
:1004E0007A7B012101FA02F21146134A0B43536150
:1004F0001AE0114B9B697A7B012101FA02F2114645
:100500000D4A0B4393610FE00B4BDB697A7B0121B2
:1005100001FA02F21146084A0B43D36104E00123B9
:10052000FB7301E00123FB73FB7B18461437BD46C8
:1005300080BC70471F85EB510010024080B500AFB2
:100540001D4B1B6801331C4A13601C4800F064F902
:100550001A4B1B783A2B10D0184B1B78232B0CD03E
:10056000174B1B781A46154B1978164B9954144B98
:100570001B780133DAB2124B1A70104B1B78232B05
:1005800008D10F4B1B781A460E4B002199540E4B85
:1005900001221A700D4B1B7819460620FFF7E6FE64
:1005A0000A4B1B78002B0CBF01230023DBB21A4639
:1005B000064B1A7000BF80BD8C0000200000002098
:1005C00084000020200000208800002090000020EF
:1005D00080B500AFFFF74EFF00F060F8CA20FFF7CC
:1005E00057FFCB20FFF754FFCC20FFF751FFD62059
:1005F000FFF74EFFFFF7BCFD00211120FFF7B6FE0D
:1006000000F0D0F82520FFF711FF0D4800F02CF97D
:1006100000F016F94FF47A7000F050F8094B1B887F
:10062000DBB219460520FFF7A1FE064B1B88002B05
:100630000CBF01230023DBB29AB2024B1A80E9E718
:100640003D050008860000200D488546AFF3008078
:100650000C480D490D4A002302E0D458C45004331D
:10066000C4188C42F9D30A4A0A4C002301E01360F3
:100670000432A242FBD300F02BF9FFF7A9FFFEE7FB
:10068000005000200000002004000020980900080D
:1006900004000020A0000020FEE7000080B400AFAE
:1006A000054B1B68044A23F004031360002318461B
:1006B000BD4680BC704700BF10E000E080B584B04C
:1006C00000AF78600023FB7300F042F87B684FF4C2
:1006D0007A7202FB03F37B607B686FF07F42934288
:1006E00009D20D4A7B6853600B4B1B680A4A43F0E2
:1006F0000103136001E00123FB7300BF064B1B687D
:1007000003F48033002BF9D000F008F8FB7B184687
:100710001037BD4680BD00BF10E000E080B582B05C
:1007200000AF0023FB71094B1B68084A23F001034B
:100730001360064B00225A60044B00229A6000F0BE
:1007400007F8FB7918460837BD4680BD10E000E089
:1007500080B400AF054B1B68044A23F0020313600A
:1007600000231846BD4680BC704700BF10E000E083
:1007700080B500AF084B1B78012B07D1FFF7CEFFE8
:10078000054B00221A70054B00221A70044B1B689F
:10079000984700BF80BD00BF98000020990000204E
:1007A0009400002080B400AF1A4B40F241329A60AE
:1007B000184BDB68174A23F48063D360154BDB6862
:1007C000144A23F48053D360124B1B69114A23F45B
:1007D000805313610F4B1B690E4A23F400531361BE
:1007E0000C4BDB680B4A43F00403D360094BDB6816
:1007F000084A43F00803D360064BDB68054A43F41C
:100800000053D360034B00221A6000BFBD4680BC7A
:10081000704700BF0038014080B485B000AF7860F9
:100820000023FB73054B5B68DAB27B681A70FB7BB5
:1008300018461437BD4680BC704700BF00380140E1
:1008400080B483B000AF0023FB71064BDB68054A20
:1008500043F02003D360FB7918460C37BD4680BCBB
:10086000704700BF0038014080B485B000AF7860A9
:100870000023FB737B68002B03D0064A7B68136060
:1008800001E00323FB73FB7B18461437BD4680BC95
:10089000704700BF9C00002080B500AF0A4B1B686A
:1008A00003F02003002B0CD0084B1B68002B02D058
:1008B000064B1B689847044B1B68034A23F0200330
:1008C000136000BF80BD00BF003801409C000020C5
:1008D00070B500260C4D0D4C641BA410A64209D126
:1008E00000F01AF800260A4D0A4C641BA410A64218
:1008F00005D170BD55F8043B98470136EEE755F831
:10090000043B98470136F2E7900900089009000877
:100910009009000894090008F8B500BFF8BC08BCAD
:100920009E467047F8B500BFF8BC08BC9E467047AD
:10093000000201020202030204020502060207028B
:10094000080209090A040B020C020D020E020F0232
:1009500010021102120213021402150216021702EB
:10096000180219021A021B021C021D021E021F029B
:10097000200221022202230224022502260227024B
:10098000280229022A022B022C022D022E022F02FB
:040990005501000805
:040994003101000825
:04099800410000001A
:0400000508000649A0
:00000001FF
