:020000040800F2
:1000000000500020FD0B00084D0C00084D0C0008AE
:100010004D0C00084D0C00084D0C000800000000BD
:100020000000000000000000000000004D0C00086F
:100030004D0C0008000000004D0C0008250D0008C4
:100040004D0C00084D0C00084D0C00084D0C00082C
:100050004D0C00084D0C00084D0C00084D0C00081C
:100060004D0C00084D0C00084D0C00084D0C00080C
:100070004D0C00084D0C00084D0C00084D0C0008FC
:100080004D0C00084D0C00084D0C00084D0C0008EC
:100090004D0C00084D0C00084D0C00084D0C0008DC
:1000A0004D0C00084D0C00084D0C00084D0C0008CC
:1000B0004D0C00084D0C00084D0C00084D0C0008BC
:1000C0004D0C00084D0C00084D0C00084D0C0008AC
:1000D0004D0C0008C90E00084D0C00084D0C00081E
:1000E0004D0C00084D0C0008000000004D0C0008ED
:1000F0004D0C00084D0C00084D0C00084D0C00087C
:100100004D0C00084D0C00084D0C00084D0C00086B
:100110004D0C00084D0C00084D0C00084D0C00085B
:100120004D0C00084D0C00084D0C00084D0C00084B
:1001300010B5054C237833B9044B13B10448AFF321
:1001400000800123237010BD040000200000000087
:10015000480F000808B5034B1BB103490348AFF330
:10016000008008BD0000000008000020480F0008C3
:1001700080B500AFD62000F0D1FC00F0EDFD2520C9
:1001800000F09AFC034800F087FE00F071FE00BF0B
:1001900080BD00BFFD02000880B588B002AF3B4BB8
:1001A0001B78012B55D13A4B1B78012B04D1384BCE
:1001B00000221A7000F07CF828223649364800F0F8
:1001C000D5FB0023FB8200237B7500233B750023B6
:1001D000FB7400233B603B1D00221A605A609A604A
:1001E00007F115003A4607F1160107F114030193D0
:1001F00007F1130300930346264800F069FB3B7D9B
:10020000002B11D1FB8A03F1006303F580431846EC
:100210007B7D5B08DBB219463B461A4600F054F979
:100220001E4800F0F3FD08E03B7D012B05D11C4882
:1002300000F0ECFD1B4800F0E9FD194800F0E6FD78
:10024000184800F0E3FD184B00221A700F4B0022F3
:100250001A70142000F00CFD144B1B88DBB21946F9
:100260002D2000F0D5FA114B1B88002B0CBF012369
:100270000023DBB29AB20D4B1A800021062000F059
:10028000C7FA00BF1837BD4680BD00BFB0000020D0
:10029000000000208800002020000020640F0008DB
:1002A0006C0F0008700F00088400002086000020FA
:1002B00080B582B000AF0023BB803B1D19460E48BD
:1002C00000F066F8BB88DBB2184600F07FFDBB8803
:1002D000FB7106E0FB79184600F0C6F8FB790133A4
:1002E000FB71BB881A1DFB799A42F3DA00BF00BF8D
:1002F0000837BD4680BD00BF0040000880B500AF94
:100300001D4B1B6801331C4A13601C4800F09CFD08
:100310001A4B1B783A2B10D0184B1B78232B0CD080
:10032000174B1B781A46154B1978164B9954144BDA
:100330001B780133DAB2124B1A70104B1B78232B47
:1003400008D10F4B1B781A460E4B002199540E4BC7
:1003500001221A700D4B1B781946062000F058FA3E
:100360000A4B1B78002B0CBF01230023DBB21A467B
:10037000064B1A7000BF80BDB400002001000020B1
:100380008400002020000020B0000020B8000020E1
:10039000B0B487B000AF786039600021F975796832
:1003A00001F1784100200A460346C7E90223D7E954
:1003B0000223002B06DA40F2FF71541843F10005C6
:1003C00022462B464FF000004FF00001D00A40EAD1
:1003D0004350D912C7E90201D7E90223002B02DA00
:1003E0000723FB7502E03A893B681A80FB7D1846BB
:1003F0001C37BD46B0BC704780B483B000AF00234B
:10040000FB7100BF174BDB6803F00103002BF9D130
:10041000144BDB6803F00103002B05D0114BDB68A4
:10042000104A43F00103D3600E4BDB6803F0010375
:10043000002B05D00B4BDB680A4A43F00103D36065
:10044000084BDB6803F00103002B05D0054BDB688C
:10045000044A43F00103D360FB7918460C37BD46CC
:1004600080BC70470020024080B584B000AF0346D6
:10047000FB710023FB73FB7903F58033DB02BB6068
:10048000BB680F4A934216D20E4B1B690D4A43F0CC
:10049000020313610B4ABB6853610A4B1B69094A8B
:1004A00043F040031361FFF7A7FF064B1B69054AA2
:1004B00023F002031361FB7B18461037BD4680BD55
:1004C000FFFF07080020024080B586B000AFF8604B
:1004D000B9607A600023FB7500F072F80346FB7583
:1004E000FFF78AFFFB7D002B03D100F041F80346A4
:1004F000FB7500233B612EE03B695A00FB68134407
:10050000B3F1006F1FD93B695A00FB681344174AC7
:10051000934218D2FB7D002B15D13B695A00FB6832
:1005200013441B68B3F1FF3F02D00123FB7516E0B3
:100530003B695B007A6813443A695100FA680A44DF
:100540001B88138002E00223FB7508E0FFF754FFCD
:100550003B6901333B613A69BB689A42CCD300F0F6
:100560001BF8FB7D18461837BD4680BDFFFF070806
:1005700080B483B000AF0023FB71064B1B69054AB2
:1005800043F001031361FB7918460C37BD4680BC6C
:10059000704700BF0020024080B483B000AF00234A
:1005A000FB71064B1B69054A23F001031361FB79BC
:1005B00018460C37BD4680BC704700BF0020024083
:1005C00080B483B000AF0023FB710F4B1B69DB09C4
:1005D000DBB203F00103BB71BB79012B05D10A4BE0
:1005E0000A4A5A60084B0A4A5A60BB79012B02D169
:1005F0000323FB7101E00023FB71FB7918460C37E4
:10060000BD4680BC704700BF002002402301674503
:10061000AB89EFCD80B582B000AF0023FB710FE056
:10062000FB790B4A12F81320FB7909495B000B4454
:100630005B781946104600F00DF8FB790133FB7129
:10064000FB792F2BECD9002318460837BD4680BD17
:10065000740F000880B485B000AF03460A46FB71F2
:100660001346BB71FB791B09DBB20133BB73FB790A
:1006700003F00F037B730023FB73BB7B032B7DD045
:10068000032B00F3B680012B02D0022B3BD0B0E04D
:100690007B7B072B17D85B4B1B687A7B92000F2163
:1006A00001FA02F2D2431146564A0B401360554BF1
:1006B0001B68B9797A7B920001FA02F21146514A1D
:1006C0000B43136098E07B7B0F2B19D84D4B5B6875
:1006D0007A7B083A92000F2101FA02F2D2431146C6
:1006E000484A0B405360474B5B68B9797A7B083ABC
:1006F000920001FA02F21146424A0B4353607BE03A
:100700000123FB7378E07B7B072B17D83E4B1B68DC
:100710007A7B92000F2101FA02F2D24311463A4A43
:100720000B401360384B1B68B9797A7B920001FA51
:1007300002F21146344A0B4313605DE07B7B0F2BC2
:1007400019D8314B5B687A7B083A92000F2101FA85
:1007500002F2D24311462C4A0B4053602A4B5B688D
:10076000B9797A7B083A920001FA02F21146264AD8
:100770000B43536040E00123FB733DE07B7B072B81
:1007800017D8224B1B687A7B92000F2101FA02F2E4
:10079000D24311461D4A0B4013601C4B1B68B979AC
:1007A0007A7B920001FA02F21146184A0B43136059
:1007B00022E07B7B0F2B19D8144B5B687A7B083ABD
:1007C00092000F2101FA02F2D24311460F4A0B4068
:1007D00053600E4B5B68B9797A7B083A920001FA54
:1007E00002F21146094A0B43536005E00123FB73F3
:1007F00002E00123FB7300BFFB7B18461437BD46A4
:1008000080BC704700080140000C0140001001400E
:1008100080B485B000AF03460A46FB711346BB7136
:10082000FB791B09DBB20133BB73FB7903F00F03C8
:100830007B730023FB73BB7B032B28D0032B37DC9C
:10084000012B02D0022B11D032E01E4BDB687A7BE9
:10085000012101FA02F2D2431340B9797A7B01FAFD
:1008600002F21146174A0B43D36024E0164BDB68B3
:100870007A7B012101FA02F2D2431340B9797A7BE3
:1008800001FA02F21146104A0B43D36013E00F4BFA
:10089000DB687A7B012101FA02F2D2431340B97975
:1008A0007A7B01FA02F21146084A0B43D36002E058
:1008B0000123FB7300BFFB7B18461437BD4680BC89
:1008C000704700BF00080140000C014000100140CB
:1008D00080B487B000AFF860B9607A603B600023F5
:1008E000FB75FB681A783B681A70FB6801331B784C
:1008F0001B021AB2FB6802331B781BB213431BB2F4
:100900009AB2BB681A80FB68DA787B6A1A70002397
:10091000FB750CE0FB7D04331A46FB681A44FB7D33
:1009200079680B4412781A70FB7D0133FB753B68C4
:100930001B78FA7D9A42EDD307E0FB7D7A68134479
:1009400000221A70FB7D0133FB75FB7D0F2BF4D960
:100950003B681B7804331A46FB6813441A783B6AD9
:100960001A7000BF1C37BD4680BC704780B487B08A
:1009700000AFF860B9601346FB710023BB8200230F
:10098000FB750023FB7577E00023BB754FE0FB7D13
:100990005A00BB7D13441A46FB6813441B782F2B67
:1009A0001CD9FB7D5A00BB7D13441A46FB681344D7
:1009B0001B78392B12D8FB7D5A00BB7D13441A4695
:1009C000FB6813441A78FB7D5900BB7D0B44194624
:1009D000FB680B44303AD2B21A7025E0FB7D5A0016
:1009E000BB7D13441A46FB6813441B78402B1BD96C
:1009F000FB7D5A00BB7D13441A46FB6813441B78E9
:100A0000462B11D8FB7D5A00BB7D13441A46FB6868
:100A100013441A78FB7D5900BB7D0B441946FB68D3
:100A20000B44373AD2B21A70BB7D0133BB75BB7D24
:100A3000012BACD90023BB82FB7D5B001A46FB680F
:100A400013441B781B011BB2DBB21AB2FB7D5B00A7
:100A50000133F9680B441B781BB203F00F031BB280
:100A600013431BB2BB82FB7DBA681344BA8AD2B26D
:100A70001A70FB7D0133FB75FA7DFB799A4211D226
:100A8000FB7D5B001A46FB6813441B78002B7FF448
:100A90007BAF07E0FB7DBA68134400221A70FB7D30
:100AA0000133FB75FA7DFB799A42F3D300BF00BF97
:100AB0001C37BD4680BC704780B485B000AF03468C
:100AC000FB710023FB73FB795B09BB73FB793B2B49
:100AD0000CD8FB7903F01F03FB71FB79012202FAAA
:100AE00003F1064ABB7B42F8231001E00123FB73AC
:100AF000FB7B18461437BD4680BC704700E100E020
:100B000080B400AF034B044A1A6000BFBD4680BCEE
:100B1000704700BF001002408000010080B485B023
:100B200000AF0346FB80FB88254AA2FB03235B0939
:100B30009BB2BB73FB88224AA2FB031252096421B9
:100B400001FB02F29B1A9BB27B730023FB737B7B3E
:100B50001F2B2DD8BB7B032B1CD0032B25DC012B9B
:100B600002D0022B0BD020E0164B5B697A7B01216F
:100B700001FA02F21146134A0B4353611AE0114B7A
:100B80009B697A7B012101FA02F211460D4A0B435F
:100B900093610FE00B4BDB697A7B012101FA02F2D2
:100BA0001146084A0B43D36104E00123FB7301E0C3
:100BB0000123FB73FB7B18461437BD4680BC70478E
:100BC0001F85EB510010024080B500AFFFF798FF82
:100BD00000F03EF8CA20FFF7A1FFCB20FFF79EFFF1
:100BE000CC20FFF79BFFFFF715FD00211120FFF739
:100BF0000FFEFFF7BDFAFFF7CFFAFCE70D48854679
:100C0000AFF300800C480D490D4A002302E0D45890
:100C1000C4500433C4188C42F9D30A4A0A4C002346
:100C200001E013600432A242FBD300F069F9FFF740
:100C3000CBFFFEE700500020000000200400002051
:100C4000DC0F000804000020C8000020FEE70000C0
:100C500080B400AF054B1B68044A23F00403136003
:100C600000231846BD4680BC704700BF10E000E07E
:100C700080B584B000AF78600023FB7300F042F8C9
:100C80007B684FF47A7202FB03F37B607B686FF042
:100C90007F42934209D20D4A7B6853600B4B1B681D
:100CA0000A4A43F00103136001E00123FB7300BF14
:100CB000064B1B6803F48033002BF9D000F008F8D2
:100CC000FB7B18461037BD4680BD00BF10E000E03A
:100CD00080B582B000AF0023FB71094B1B68084A46
:100CE00023F001031360064B00225A60044B0022DC
:100CF0009A6000F007F8FB7918460837BD4680BDBA
:100D000010E000E080B400AF054B1B68044A23F0FC
:100D10000203136000231846BD4680BC704700BF25
:100D200010E000E080B500AF084B1B78012B07D125
:100D3000FFF7CEFF054B00221A70054B00221A70F8
:100D4000044B1B68984700BF80BD00BFC000002057
:100D5000C1000020BC00002080B400AF1A4B40F25C
:100D600041329A60184BDB68174A23F48063D360E2
:100D7000154BDB68144A23F48053D360124B1B6974
:100D8000114A23F4805313610F4B1B690E4A23F45D
:100D9000005313610C4BDB680B4A43F00403D36030
:100DA000094BDB68084A43F00803D360064BDB6855
:100DB000054A43F40053D360034B00221A6000BF7E
:100DC000BD4680BC704700BF0038014080B485B08C
:100DD00000AF0346FB710023FB7300BF0A4B1B6887
:100DE00003F08003002BF9D0074AFB795360064BD0
:100DF0001B68054A23F080031360FB7B18461437F9
:100E0000BD4680BC704700BF0038014080B584B04B
:100E100000AF78600023BB730023FB7309E0FB7B0A
:100E20007A6813441B781846FFF7D0FFFB7B013329
:100E3000FB73FB7B7A6813441B78002BEFD1BB7BE1
:100E400018461037BD4680BD80B485B000AF7860CD
:100E50000023FB73054B5B68DAB27B681A70FB7B7F
:100E600018461437BD4680BC704700BF00380140AB
:100E700080B483B000AF0023FB71064BDB68054AEA
:100E800043F02003D360FB7918460C37BD4680BC85
:100E9000704700BF0038014080B485B000AF786073
:100EA0000023FB737B68002B03D0064A7B6813602A
:100EB00001E00323FB73FB7B18461437BD4680BC5F
:100EC000704700BFC400002080B500AF0A4B1B680C
:100ED00003F02003002B0CD0084B1B68002B02D022
:100EE000064B1B689847044B1B68034A23F02003FA
:100EF000136000BF80BD00BF00380140C400002067
:100F000070B500260C4D0D4C641BA410A64209D1EF
:100F100000F01AF800260A4D0A4C641BA410A642E1
:100F200005D170BD55F8043B98470136EEE755F8FA
:100F3000043B98470136F2E7D40F0008D40F0008AD
:100F4000D40F0008D80F0008F8B500BFF8BC08BCE3
:100F50009E467047F8B500BFF8BC08BC9E46704777
:100F60002000000057524F54450000000A000000C6
:100F70004F4B0000000201020202030204020502BC
:100F800006020702080209090A040B020C020D02FC
:100F90000E020F02100211021202130214021502B5
:100FA00016021702180219021A021B021C021D0265
:100FB0001E021F0220022102220223022402250215
:100FC00026022702280229022A022B022C022D02C5
:040FD0002E022F02BC
:040FD40055010008BB
:040FD80031010008DB
:040FDC0001410000CF
:0400000508000BFDE7
:00000001FF
