:020000040800F2
:1080000000500020418C0008918C0008918C0008E1
:10801000918C0008918C0008918C000800000000F1
:10802000000000000000000000000000918C00082B
:10803000918C000800000000918C0008098D000858
:10804000918C0008918C0008918C0008918C00089C
:10805000918C0008918C0008D5820008ED82000800
:10806000058300081D83000835830008918C0008F3
:10807000918C0008918C0008918C0008918C00086C
:10808000918C0008918C0008918C0008918C00085C
:10809000918C0008918C0008918C00084D83000899
:1080A000918C0008918C0008918C0008918C00083C
:1080B000918C0008918C0008918C0008918C00082C
:1080C000918C0008918C0008918C0008918C00081C
:1080D000918C0008A98E000815900008918C00086A
:1080E000FD830008918C000800000000918C0008BE
:1080F000918C0008918C0008918C0008918C0008EC
:10810000918C0008918C0008918C0008918C0008DB
:10811000918C0008918C0008918C0008918C0008CB
:10812000918C0008918C0008918C0008918C0008BB
:1081300010B5054C237833B9044B13B10448AFF3A1
:1081400000800123237010BD1400002000000000F7
:10815000F892000808B5034B1BB103490348AFF37D
:10816000008008BD0000000018000020F892000800
:1081700080B485B000AF03463960FB710023FB7308
:108180003B68002B0BD0FB790F2B05D8FB790849F6
:108190003A6841F8232004E00123FB7301E0012346
:1081A000FB73FB7B18461437BD4680BC704700BF8D
:1081B0003000002080B485B000AF0346FB7100237F
:1081C000FB73FB790F2B0AD8094B1B68FA79012145
:1081D00001FA02F21146064A0B43136001E0012343
:1081E000FB73FB7B18461437BD4680BC704700BF4D
:1081F0000004014080B485B000AF0346FB7100234A
:10820000FB73FB790F2B0AD8094B5B69FA790121C3
:1082100001FA02F21146064A0B43536101E00123C1
:10822000FB73FB7B18461437BD4680BC704700BF0C
:108230000004014080B485B000AF03460A46FB71DC
:108240001346BB710023FB73FB790F2B37D8BB7927
:10825000022B1CD0022B2FDC002B02D0012B0BD0C9
:108260002AE01B4BDB68FA79012101FA02F2114680
:10827000174A0B43D36024E0154B9B68FA79012120
:1082800001FA02F21146124A0B43936019E0104BB7
:108290009B68FA79012101FA02F211460C4A0B435C
:1082A00093600B4BDB68FA79012101FA02F2114667
:1082B000074A0B43D36004E00123FB7301E0012371
:1082C000FB73FB7B18461437BD4680BC704700BF6C
:1082D0000004014080B500AF034B1B6898470020A5
:1082E000FFF788FF00BF80BD3000002080B500AFE1
:1082F000034B5B6898470120FFF77CFF00BF80BD00
:108300003000002080B500AF034B9B6898470220E7
:10831000FFF770FF00BF80BD3000002080B500AFC8
:10832000034BDB6898470320FFF764FF00BF80BD65
:108330003000002080B500AF034B1B699847042034
:10834000FFF758FF00BF80BD3000002080B500AFB0
:10835000284B5B6903F02003002B09D0264B5B6997
:10836000002B05D0244B5B6998470520FFF742FF9F
:10837000204B5B6903F04003002B09D01E4B9B6927
:10838000002B05D01C4B9B6998470620FFF732FF56
:10839000184B5B6903F08003002B09D0164BDB6997
:1083A000002B05D0144BDB6998470720FFF722FF0D
:1083B000104B5B6903F48073002B09D00E4B1B6AD2
:1083C000002B05D00C4B1B6A98470820FFF712FFC3
:1083D000084B5B6903F40073002B09D0064B5B6A02
:1083E000002B05D0044B5B6A98470920FFF702FF7A
:1083F00000BF80BD000401403000002080B500AF08
:10840000304B5B6903F48063002B09D02E4B9B6AD1
:10841000002B05D02C4B9B6A98470A20FFF7EAFEF9
:10842000284B5B6903F40063002B09D0264BDB6A01
:10843000002B05D0244BDB6A98470B20FFF7DAFEB0
:10844000204B5B6903F48053002B09D01E4B1B6B40
:10845000002B05D01C4B1B6B98470C20FFF7CAFE66
:10846000184B5B6903F40053002B09D0164B5B6B70
:10847000002B05D0144B5B6B98470D20FFF7BAFE1D
:10848000104B5B6903F48043002B09D00E4B9B6BB0
:10849000002B05D00C4B9B6B98470E20FFF7AAFED4
:1084A000084B5B6903F40043002B09D0064BDB6BE0
:1084B000002B05D0044BDB6B98470F20FFF79AFE8B
:1084C00000BF80BD000401403000002080B483B0B4
:1084D00000AF0023FB7100BF174BDB6803F0010303
:1084E000002BF9D1144BDB6803F00103002B05D0FE
:1084F000114BDB68104A43F00103D3600E4BDB687D
:1085000003F00103002B05D00B4BDB680A4A43F054
:108510000103D360084BDB6803F00103002B05D097
:10852000054BDB68044A43F00103D360FB7918462E
:108530000C37BD4680BC70470020024080B584B037
:1085400000AF78600B467B800023FB7300F058F887
:108550000346FB737B681B68B3F1FF3F02D0012326
:10856000FB731DE0FFF7B2FFFB7B002B03D100F094
:108570001FF80346FB737B68B3F1006F0AD97B6871
:108580000A4A934206D2FB7B002B03D17B687A8890
:108590001A8001E00223FB73FFF798FF00F01CF83C
:1085A000FB7B18461037BD4680BD00BFFFFF0708A4
:1085B00080B483B000AF0023FB71064B1B69054AF2
:1085C00043F001031361FB7918460C37BD4680BCAC
:1085D000704700BF0020024080B483B000AF00238A
:1085E000FB71064B1B69054A23F001031361FB79FC
:1085F00018460C37BD4680BC704700BF00200240C3
:1086000080B483B000AF0023FB71124B1B69DB0900
:10861000DBB203F00103BB71BB79012B05D10D4B1C
:108620000D4A5A600B4B0D4A5A600A4B1B69DB0915
:10863000DBB203F00103BB71BB79012B02D1032331
:10864000FB7101E00023FB71FB7918460C37BD4636
:1086500080BC70470020024023016745AB89EFCD05
:1086600080B582B000AF0023FB710FE0FB790B4AAD
:1086700012F81320FB7909495B000B445B7819461B
:10868000104600F00DF8FB790133FB71FB792F2BBD
:10869000ECD9002318460837BD4680BD5893000822
:1086A00080B485B000AF03460A46FB711346BB7128
:1086B000FB791B09DBB20133BB73FB7903F00F03BA
:1086C0007B730023FB73BB7B032B7DD0032B00F359
:1086D000B680012B02D0022B3BD0B0E07B7B072B76
:1086E00017D85B4B1B687A7B92000F2101FA02F2CC
:1086F000D2431146564A0B401360554B1B68B9795B
:108700007A7B920001FA02F21146514A0B43136040
:1087100098E07B7B0F2B19D84D4B5B687A7B083A2E
:1087200092000F2101FA02F2D2431146484A0B404F
:108730005360474B5B68B9797A7B083A920001FA3B
:1087400002F21146424A0B4353607BE00123FB7364
:1087500078E07B7B072B17D83E4B1B687A7B920017
:108760000F2101FA02F2D24311463A4A0B4013603C
:10877000384B1B68B9797A7B920001FA02F21146F4
:10878000344A0B4313605DE07B7B0F2B19D8314BD0
:108790005B687A7B083A92000F2101FA02F2D24319
:1087A00011462C4A0B4053602A4B5B68B9797A7B9F
:1087B000083A920001FA02F21146264A0B4353602E
:1087C00040E00123FB733DE07B7B072B17D8224B56
:1087D0001B687A7B92000F2101FA02F2D243114604
:1087E0001D4A0B4013601C4B1B68B9797A7B9200C1
:1087F00001FA02F21146184A0B43136022E07B7B18
:108800000F2B19D8144B5B687A7B083A92000F2122
:1088100001FA02F2D24311460F4A0B4053600E4B4D
:108820005B68B9797A7B083A920001FA02F2114644
:10883000094A0B43536005E00123FB7302E0012367
:10884000FB7300BFFB7B18461437BD4680BC7047E6
:1088500000080140000C01400010014080B485B0C8
:1088600000AF03460A46FB711346BB71FB791B0937
:10887000DBB20133BB73FB7903F00F037B7300237F
:10888000FB73BB7B032B28D0032B37DC012B02D0DF
:10889000022B11D032E01E4BDB687A7B012101FAFA
:1088A00002F2D2431340B9797A7B01FA02F21146FF
:1088B000174A0B43D36024E0164BDB687A7B012117
:1088C00001FA02F2D2431340B9797A7B01FA02F23B
:1088D0001146104A0B43D36013E00F4BDB687A7BE1
:1088E000012101FA02F2D2431340B9797A7B01FAED
:1088F00002F21146084A0B43D36002E00123FB73E6
:1089000000BFFB7B18461437BD4680BC704700BFD4
:1089100000080140000C01400010014080B485B007
:1089200000AF0346FB710023FB73FB795B09BB734C
:10893000FB793B2B0CD8FB7903F01F03FB71FB7910
:10894000012202FA03F1064ABB7B42F8231001E040
:108950000123FB73FB7B18461437BD4680BC704770
:1089600000E100E080B400AF034B044A1A6000BF8E
:10897000BD4680BC704700BF00100240800001006F
:1089800080B485B000AF0346FB80FB88254AA2FB7C
:1089900003235B099BB2BB73FB88224AA2FB031231
:1089A0005209642101FB02F29B1A9BB27B730023E4
:1089B000FB737B7B1F2B2DD8BB7B032B1CD0032B86
:1089C00025DC012B02D0022B0BD020E0164B5B697B
:1089D0007A7B012101FA02F21146134A0B435361DB
:1089E0001AE0114B9B697A7B012101FA02F21146D0
:1089F0000D4A0B4393610FE00B4BDB697A7B01213E
:108A000001FA02F21146084A0B43D36104E0012344
:108A1000FB7301E00123FB73FB7B18461437BD4653
:108A200080BC70471F85EB510010024080B500AF3D
:108A300000F040F9014B024ADA60FEE700ED00E089
:108A40000400FA0580B582B000AF0023FB710DE091
:108A5000FB790A4AD35C002B05D0FB79074AD35C2B
:108A6000184600F077FAFB790133FB71FB790E2B86
:108A7000EED900BF00BF0837BD4680BD0000002012
:108A800080B500AF024800F0B1F900BF80BD00BF63
:108A90001093000880B500AF024800F0A7F900BFAE
:108AA00080BD00BF2893000880B400AF0C4B1B783A
:108AB000802B06D10B4B1B78802B02D10A4B012255
:108AC0001A70074B1B78802B06D1084B1B78802B24
:108AD00002D1054B01221A7000BFBD4680BC704711
:108AE000100000200F000020700000201100002066
:108AF00080B400AF034B80221A7000BFBD4680BC1B
:108B0000704700BF0F00002080B500AFFFF72AFFBD
:108B1000CA20FFF735FFCB20FFF732FFCC20FFF74D
:108B20002FFFFFF79DFD00F091FA00211120FFF7C4
:108B300095FE00210420FFF791FE01210020FFF7A0
:108B40008DFE0620FFF7EAFE00210020FFF772FBF2
:108B500034490020FFF70CFB0020FFF72BFB00F04F
:108B600099F8FFF76FFF304B1B78052B58D801A2FF
:108B700052F823F08D8B0008078C0008BB8B00088F
:108B8000CD8B0008DF8B0008FB8B000800F0AEFAED
:108B900000F0E8FAFFF788FF244B1B7819460620FF
:108BA000FFF75CFE214B1B78002B0CBF0123002339
:108BB000DBB21A461D4B1A7033E0FFF761FF1C4B06
:108BC00080221A70184B00221A702AE0FFF762FF09
:108BD000174B80221A70144B00221A7021E0154B9B
:108BE00080221A70144B55221A7001210420FFF7BD
:108BF00035FE0D4B00221A7013E0FFF723FF0A4BDE
:108C000000221A700DE00D4B1B884AF65522934244
:108C100004D04AF655210948FFF790FCFFF706FFFC
:108C200000BFA0E7F18A00087000002012000020B9
:108C300011000020100000200F00002000F00008AC
:108C40000D488546AFF300800C480D490D4A0023BE
:108C500002E0D458C4500433C4188C42F9D30A4AF1
:108C60000A4C002301E013600432A242FBD300F05F
:108C70001FFBFFF749FFFEE7005000200000002027
:108C800014000020C09300081400002054010020AC
:108C9000FEE7000080B400AF054B1B68044A23F0D8
:108CA0000403136000231846BD4680BC704700BF14
:108CB00010E000E080B582B000AF0023FB71094BEB
:108CC0001B68084A23F001031360064B00225A6018
:108CD000044B00229A6000F007F8FB791846083729
:108CE000BD4680BD10E000E080B400AF054B1B68BE
:108CF000044A23F00203136000231846BD4680BCDB
:108D0000704700BF10E000E080B500AF084B1B7853
:108D1000012B07D1FFF7CEFF054B00221A70054B40
:108D200000221A70044B1B68984700BF80BD00BF2B
:108D300078000020790000207400002080B400AF8B
:108D4000194B45229A60184BDB68174A23F480635D
:108D5000D360154BDB68144A23F48053D360124B65
:108D60001B69114A23F4805313610F4B1B690E4A90
:108D700023F4005313610C4BDB680B4A43F00403EC
:108D8000D360094BDB68084A43F00803D360064B05
:108D9000DB68054A43F40053D360034B00221A609A
:108DA00000BFBD4680BC70470038014080B485B02C
:108DB00000AF0346FB710023FB7300BF0A4B1B6827
:108DC00003F08003002BF9D0074AFB795360064B70
:108DD0001B68054A23F080031360FB7B1846143799
:108DE000BD4680BC704700BF0038014080B584B0EC
:108DF00000AF78600023BB730023FB7309E0FB7BAB
:108E00007A6813441B781846FFF7D0FFFB7B0133C9
:108E1000FB73FB7B7A6813441B78002BEFD1BB7B81
:108E200018461037BD4680BD80B485B000AF78606D
:108E30000023FB73054B5B68DAB27B681A70FB7B1F
:108E400018461437BD4680BC704700BF003801404B
:108E500080B483B000AF0023FB71064BDB68054A8A
:108E600043F02003D360FB7918460C37BD4680BC25
:108E7000704700BF0038014080B485B000AF786013
:108E80000023FB737B68002B03D0064A7B681360CA
:108E900001E00323FB73FB7B18461437BD4680BCFF
:108EA000704700BF7C00002080B500AF0A4B1B68F4
:108EB00003F02003002B0CD0084B1B68002B02D0C2
:108EC000064B1B689847044B1B68034A23F020039A
:108ED000136000BF80BD00BF003801407C0000204F
:108EE00080B400AF1A4B40F241329A60184BDB68F5
:108EF000174A23F48063D360154BDB68144A23F4CC
:108F00008053D360124B1B69114A23F480531361C1
:108F10000F4B1B690E4A23F4005313610C4BDB68A3
:108F20000B4A43F00403D360094BDB68084A43F063
:108F30000803D360064BDB68054A43F40053D36053
:108F4000034B00221A6000BFBD4680BC704700BFC3
:108F50000044004080B485B000AF0346FB7100239D
:108F6000FB7300BF0A4B1B6803F08003002BF9D092
:108F7000074AFB795360064B1B68054A23F08003C0
:108F80001360FB7B18461437BD4680BC704700BF9A
:108F90000044004080B485B000AF78600023FB73CC
:108FA000054B5B68DAB27B681A70FB7B1846143796
:108FB000BD4680BC704700BF0044004080B483B011
:108FC00000AF0023FB71064BDB68054A43F020032A
:108FD000D360FB7918460C37BD4680BC704700BF94
:108FE0000044004080B485B000AF78600023FB737C
:108FF0007B68002B03D0064A7B68136001E00323E3
:10900000FB73FB7B18461437BD4680BC704700BF1E
:109010008000002080B500AF0A4B1B6803F02003DE
:10902000002B0CD0084B1B68002B02D0064B1B6892
:109030009847044B1B68034A23F02003136000BFCA
:1090400080BD00BF004400408000002080B500AF1C
:10905000D620FFF795FCFFF771FE2520FFF75EFC99
:109060000A48FFF709FFFFF7F3FE40F23D10FFF754
:1090700087FCFFF735FF2620FFF750FC0448FFF779
:10908000B1FFFFF79BFF00BF80BD00BF119200083A
:109090006592000880B485B000AF78603960012324
:1090A000FB730023BB730FE0BB7B7A6813441A7811
:1090B000BB7B39680B441B789A4202D00023FB73B8
:1090C0000EE0BB7B0133BB73BB7B7A6813441B7818
:1090D000232BE9D1BB7B3A6813441B78232BE3D1C4
:1090E000FB7B18461437BD4680BC704780B582B004
:1090F00000AF174B1B78DBB2012B09D1154916487D
:10910000FFF7C8FF0346012B02D1144B04221A704B
:10911000134B1B78322B04D80D4B1B78DBB2012B81
:1091200012D10B4B00221A700023FB7106E0FB7971
:10913000084A0021D154FB790133FB71FB79322BB2
:10914000F5D9074B00221A7000BF0837BD4680BD15
:10915000E9000020840000203893000870000020FF
:10916000E800002080B582B000AF224B1B78DBB254
:10917000012B1FD120492148FFF78CFF0346012B0B
:1091800003D11F4B02221A7014E01B491D48FFF740
:1091900081FF0346012B03D1194B03221A7009E00A
:1091A00015491948FFF776FF0346012B02D1144BEE
:1091B00005221A70154B1B78322B04D80D4B1B78E7
:1091C000DBB2012B12D10B4B00221A700023FB7172
:1091D00006E0FB79084A0021D154FB790133FB7189
:1091E000FB79322BF5D9094B00221A7000BF0837E2
:1091F000BD4680BD51010020EC00002040930008D6
:10920000700000204893000850930008500100208F
:1092100080B582B000AF0023FB71FB1D1846FFF73D
:1092200003FEFB791846FFF795FE0B4B1B781A4699
:10923000F9790A4B9954084B1B780133DAB2064B83
:109240001A70FB79232B02D1054B01221A7000BF43
:109250000837BD4680BD00BFE80000208400002024
:10926000E900002080B582B000AF0023FB71FB1D38
:109270001846FFF78FFE0B4B1B781A46F9790A4BFD
:109280009954084B1B780133DAB2064B1A70FB79FC
:10929000232B02D1054B01221A7000BF0837BD46AF
:1092A00080BD00BF50010020EC00002051010020D3
:1092B00070B500260C4D0D4C641BA410A64209D1BC
:1092C00000F01AF800260A4D0A4C641BA410A642AE
:1092D00005D170BD55F8043B98470136EEE755F8C7
:1092E000043B98470136F2E7B8930008B8930008AA
:1092F000B8930008BC930008F8B500BFF8BC08BCE0
:109300009E467047F8B500BFF8BC08BC9E46704743
:109310004552525F315F4D4F544F525F5350454558
:10932000445F565F320000004552525F315F464154
:109330004E5F565F320000005550444154452300B3
:1093400045525231230000004552523223000000A2
:1093500052455123000000000008010202090304E5
:109360000402050206020702080209090A040B02A8
:109370000C020D020E020F02100211021202130261
:109380001402150216021702180219021A021B0211
:109390001C021D021E021F022002210222022302C1
:1093A0002402250226022702280229022A022B0271
:0893B0002C022D022E022F02F7
:0493B80055810008D3
:0493BC0031810008F3
:1093C00001BB0F0F0000000000000000000000556E
:0493D00055550100EE
:0400000508008C4122
:00000001FF
