:020000040800F2
:1000000000500020B5120008051300080513000871
:100010000513000805130008051300080000000080
:1000200000000000000000000000000005130008B0
:1000300005130008000000000513000869140008FB
:100040000513000805130008051300080513000830
:100050000513000805130008051300080513000820
:100060000513000805130008051300080513000810
:100070000513000805130008051300080513000800
:1000800005130008051300080513000805130008F0
:1000900005130008051300080513000805130008E0
:1000A00005130008051300080513000805130008D0
:1000B00005130008051300080513000805130008C0
:1000C00005130008051300080513000805130008B0
:1000D00005130008D91600080513000805130008C9
:1000E00005130008051300080000000005130008B0
:1000F0000513000805130008051300080513000880
:10010000051300080513000805130008051300086F
:10011000051300080513000805130008051300085F
:10012000051300080513000805130008051300084F
:1001300010B5054C237833B9044B13B10448AFF321
:1001400000800123237010BD040000200000000087
:10015000F017000808B5034B1BB103490348AFF380
:10016000008008BD0000000008000020F017000813
:1001700080B400AFBFF35F8F00BFBD4680BC704747
:1001800080B500AFD62000F0B1FF01F087F925203F
:1001900000F07AFF044801F087FA01F05DFA01F0FF
:1001A000B3F800BF80BD00BF5907000880B584B018
:1001B00000AF41F288337B80BB1C19461C4800F01D
:1001C0002AFB7B88DBB2184600F092FB01F058FA5C
:1001D00000F0DCFCCA2000F0DFFFCB2000F0DCFFE9
:1001E000CC2000F0D9FFD62000F0D6FF40F23D1021
:1001F00000F0D2FFFFF7BCFF0E4B0F4A9A60FFF7EB
:10020000B7FF0E4B1B687B607B6883F3088800BFD9
:10021000094BFB60FB681B68BB60BB68B3F1FF3F29
:1002200001D0BB68984700BF1037BD4680BD00BFF6
:1002300000F8000800ED00E00480000800800008DD
:1002400080B584B000AF1F4B1B884AF655229342FD
:1002500004D04AF655211B4800F07EFB01F010FA4D
:1002600001F08EFA00F092FCCA2000F095FFCB203E
:1002700000F092FFCC2000F08FFFD62000F08CFF22
:1002800040F23D1000F088FFFFF772FF0E4B0F4A5F
:100290009A60FFF76DFF0E4B1B687B607B6883F3F2
:1002A000088800BF094BFB60FB681B68BB60BB682C
:1002B000B3F1FF3F01D0BB68984700BF1037BD4680
:1002C00080BD00BF00F8000800ED00E00420000839
:1002D0000020000880B58AB002AF0023FB7700231E
:1002E000BB7700237B775B4B1B78012B16D100F08B
:1002F00011FA03467B777B7F002B06D101F048F88B
:100300005549564801F010F805E001F041F854490C
:10031000524801F009F84F4B00221A70514B1B78DC
:10032000012B40F09280504B1B78012B04D14E4B97
:1003300000221A7000F0ACF828224C494C4800F01A
:10034000CDFD00237B8300237B7600233B760023B7
:10035000FB7500237B6007F1080300221A605A60D6
:100360009A6007F119003A1D07F11A0107F1180305
:10037000019307F11703009303463C4800F060FD2A
:10038000FB7D1A462821394800F04EFE0346BB7714
:10039000FB7DBA7F9A4202D10123FB7701E0002363
:1003A000FB77FB7F184601F003F93B7E002B12D14F
:1003B00000F0EEFF2A492F4800F0B6FF7B8B03F1D7
:1003C000006318467B7E5B08DBB219463B1D1A466C
:1003D00000F0FCFA14E03B7E012B11D100F0D8FFB5
:1003E00041F288337B80BB1C1946234800F013FA86
:1003F0007B88DBB2184600F07BFA204B04221A708F
:10040000FB7F012B12D11E4801F0A0F81D4801F01E
:100410009DF81D4B00221A70124B00221A701A4BC5
:1004200000221A700F4B00221A700EE0FB7F002B87
:100430000BD1134801F08AF8144801F087F8124BE9
:1004400000221A70074B00221A7000BF2037BD46E9
:1004500080BD00BF0200002095060008C0E1E40056
:10046000AD060008B4000020010000208C00002030
:1004700024000020404B4C0000F000080000002049
:10048000081800080C180008880000201018000840
:1004900080B582B000AF0023BB803B1D19460E48DB
:1004A00000F0B9F9BB88DBB2184601F02FF8BB8821
:1004B000FB7106E0FB79184600F01AFAFB7901336C
:1004C000FB71BB8803F10902FB799A42F2DA00BFA3
:1004D00000BF0837BD4680BD0080000880B582B0EF
:1004E00000AF0023FB71464B1B78072B00F2828084
:1004F00001A252F823F000BF3D05000819050008CD
:10050000F5050008DB050008E1050008ED05000819
:100510006B050008E705000800F0D4F80346BB713E
:10052000BB79012B06D1364B06221A70354B0122BE
:100530001A7060E0324B00221A705CE000F0EAF8BA
:100540000346FB71FB79002B06D100F041FF2E49D9
:100550002E4800F0E9FE05E000F03AFF2C492B4858
:1005600000F0E2FE00F05CF845E000F0D3F803464E
:10057000FB71FB79002B06D100F02AFF22492548A8
:1005800000F0D2FE03E02249224800F0CDFE1D4BD0
:100590001B78012B1ED11A4B03221A70194B002213
:1005A0001A701D4800F0D2FF1C4800F0CFFF6420F5
:1005B00000F012F9184800F0C9FF184800F0C6FF13
:1005C000C82000F009F9144800F0C0FF134800F0FB
:1005D000BDFF10E000F024F80DE0FFF77BFE0AE01D
:1005E000FFF7E4FD07E0FFF72BFE04E0044B0022D9
:1005F0001A7000E000BF00BF0837BD4680BD00BFD5
:10060000000000202000002095060008404B4C0010
:10061000AD060008C0E1E40014180008081800083E
:1006200080B582B000AF0023FB800023BB80154B58
:100630001B78012B13D93B1D02221946124800F0EA
:100640004DFC3B791B021AB27B791BB213431BB2E0
:10065000FB800C4B00221A700B4B00221A80FB8887
:100660004AF6AA22934208D100F092FE074800F011
:100670006DFF074B03221A7000E000BF00BF083770
:10068000BD4680BD88000020240000201C18000802
:100690000000002080B500AF034B04221A7000F068
:1006A00077FE00BF80BD00BF0000002080B500AF16
:1006B000034B07221A7000F06BFE00BF80BD00BF25
:1006C0000000002080B483B000AF0123FB710E4B0B
:1006D0003B603B68B3F1006F0FD33B680B4A93421A
:1006E0000BD83B681B884AF65522934203D1084B2E
:1006F00006221A7001E00023FB71FB7918460C37C3
:10070000BD4680BC704700BF00F00008FFFF07082F
:100710000000002080B483B000AF0123FB710C4BBC
:100720003B603B68B3F1006F0BD33B68094A9342CF
:1007300007D83B681B884AF65522934201D0002314
:10074000FB71FB7918460C37BD4680BC704700BF73
:1007500000F80008FFFF070880B500AF184B1B68C2
:100760000133174A1360174800F00EFF154B1B7832
:100770003A2B10D0134B1B78232B0CD0124B1B7829
:100780001A46104B1978114B99540F4B1B780133B3
:10079000DAB20D4B1A700B4B1B78232B0ED10A4B80
:1007A0001B781A46094B00219954094B01221A70F3
:1007B000084B1B8801339AB2064B1A8000BF80BDDC
:1007C000B8000020BC000020880000202400002089
:1007D000B4000020BE00002080B485B000AF786077
:1007E0000023FB600DE00023BB6003E000BFBB689B
:1007F0000133BB60BA687B689A42F7D9FB68013362
:10080000FB60FA687B689A42EDD900BF00BF1437DD
:10081000BD4680BC7047B0B487B000AF7860396027
:100820000021F975796801F1784100200A460346F4
:10083000C7E90223D7E90223002B06DA40F2FF3191
:10084000541843F1000522462B464FF000004FF0AC
:100850000001900A40EA83509912C7E90201D7E9E2
:100860000223002B02DA0723FB7502E03A893B687A
:100870001A80FB7D18461C37BD46B0BC704700008F
:1008800080B483B000AF0023FB7100BF174BDB685F
:1008900003F00103002BF9D1144BDB6803F00103D3
:1008A000002B05D0114BDB68104A43F00103D360E5
:1008B0000E4BDB6803F00103002B05D00B4BDB680C
:1008C0000A4A43F00103D360084BDB6803F00103DD
:1008D000002B05D0054BDB68044A43F00103D360CD
:1008E000FB7918460C37BD4680BC7047002002409B
:1008F00080B584B000AF0346FB710023FB73FB7926
:1009000003F500339B02BB60BB68114A93421AD2C5
:1009100000F0D8F80F4B1B690E4A43F00203136135
:100920000C4ABB6853610B4B1B690A4A43F04003F6
:100930001361FFF7A5FF074B1B69064A23F002036B
:10094000136100F0EFF8FB7B18461037BD4680BD01
:10095000FFFF07080020024080B584B000AF786038
:100960000B467B800023FB7300F0ACF80346FB735F
:100970007B681B68B3F1FF3F02D00123FB731DE0CE
:10098000FFF77EFFFB7B002B03D100F073F80346DB
:10099000FB737B68B3F1006F0AD97B680A4A934204
:1009A00006D2FB7B002B03D17B687A881A8001E09A
:1009B0000223FB73FFF764FF00F070F8FB7B18461F
:1009C0001037BD4680BD00BFFFFF070880B586B069
:1009D00000AFF860B9607A600023FB7500F072F830
:1009E0000346FB75FFF74CFFFB7D002B03D100F0A6
:1009F00041F80346FB7500233B612EE03B695A003A
:100A0000FB681344B3F1006F1FD93B695A00FB68C0
:100A10001344174A934218D2FB7D002B15D13B6932
:100A20005A00FB6813441B68B3F1FF3F02D0012357
:100A3000FB7516E03B695B007A6813443A69510024
:100A4000FA680A441B88138002E00223FB7508E061
:100A5000FFF716FF3B6901333B613A69BB689A4275
:100A6000CCD300F01BF8FB7D18461837BD4680BD7F
:100A7000FFFF070880B483B000AF0023FB71064B73
:100A80001B69054A43F001031361FB7918460C37D3
:100A9000BD4680BC704700BF0020024080B483B0D8
:100AA00000AF0023FB71064B1B69054A23F00103CD
:100AB0001361FB7918460C37BD4680BC704700BFF8
:100AC0000020024080B483B000AF0023FB71124BC2
:100AD0001B69DB09DBB203F00103BB71BB79012B9E
:100AE00005D10D4B0D4A5A600B4B0D4A5A600A4B0B
:100AF0001B69DB09DBB203F00103BB71BB79012B7E
:100B000002D10323FB7101E00023FB71FB7918463E
:100B10000C37BD4680BC704700200240230167456A
:100B2000AB89EFCD80B483B000AF0023FB71064BDF
:100B30001B69054A43F080031361FB7918460C37A3
:100B4000BD4680BC704700BF0020024080B582B027
:100B500000AF0023FB710FE0FB790B4A12F8132062
:100B6000FB7909495B000B445B781946104600F09D
:100B700029F8FB790133FB71FB792F2BECD900238A
:100B800018460837BD4680BD2818000880B582B0D9
:100B900000AF0023FB710AE0FB79094A12F8133019
:100BA0000021184600F0ECF8FB790133FB71FB796A
:100BB0002F2BF1D9002318460837BD4680BD00BF52
:100BC0002818000880B485B000AF03460A46FB71C0
:100BD0001346BB71FB791B09DBB20133BB73FB7995
:100BE00003F00F037B730023FB73BB7B032B7DD0D0
:100BF000032B00F3B680012B02D0022B3BD0B0E0D8
:100C00007B7B072B17D85B4B1B687A7B92000F21ED
:100C100001FA02F2D2431146564A0B401360554B7B
:100C20001B68B9797A7B920001FA02F21146514AA7
:100C30000B43136098E07B7B0F2B19D84D4B5B68FF
:100C40007A7B083A92000F2101FA02F2D243114650
:100C5000484A0B405360474B5B68B9797A7B083A46
:100C6000920001FA02F21146424A0B4353607BE0C4
:100C70000123FB7378E07B7B072B17D83E4B1B6867
:100C80007A7B92000F2101FA02F2D24311463A4ACE
:100C90000B401360384B1B68B9797A7B920001FADC
:100CA00002F21146344A0B4313605DE07B7B0F2B4D
:100CB00019D8314B5B687A7B083A92000F2101FA10
:100CC00002F2D24311462C4A0B4053602A4B5B6818
:100CD000B9797A7B083A920001FA02F21146264A63
:100CE0000B43536040E00123FB733DE07B7B072B0C
:100CF00017D8224B1B687A7B92000F2101FA02F26F
:100D0000D24311461D4A0B4013601C4B1B68B97936
:100D10007A7B920001FA02F21146184A0B431360E3
:100D200022E07B7B0F2B19D8144B5B687A7B083A47
:100D300092000F2101FA02F2D24311460F4A0B40F2
:100D400053600E4B5B68B9797A7B083A920001FADE
:100D500002F21146094A0B43536005E00123FB737D
:100D600002E00123FB7300BFFB7B18461437BD462E
:100D700080BC704700080140000C01400010014099
:100D800080B485B000AF03460A46FB711346BB71C1
:100D9000FB791B09DBB20133BB73FB7903F00F0353
:100DA0007B730023FB73BB7B032B28D0032B37DC27
:100DB000012B02D0022B11D032E01E4BDB687A7B74
:100DC000012101FA02F2D2431340B9797A7B01FA88
:100DD00002F21146174A0B43D36024E0164BDB683E
:100DE0007A7B012101FA02F2D2431340B9797A7B6E
:100DF00001FA02F21146104A0B43D36013E00F4B85
:100E0000DB687A7B012101FA02F2D2431340B979FF
:100E10007A7B01FA02F21146084A0B43D36002E0E2
:100E20000123FB7300BFFB7B18461437BD4680BC13
:100E3000704700BF00080140000C01400010014055
:100E400080B487B000AFF860B9607A603B6000237F
:100E5000FB75FB681A783B681A70FB6801331B78D6
:100E60001B021AB2FB6802331B781BB213431BB27E
:100E70009AB2BB681A80FB68DA787B6A1A70002322
:100E8000FB750CE0FB7D04331A46FB681A44FB7DBE
:100E900079680B4412781A70FB7D0133FB753B684F
:100EA0001B78FA7D9A42EDD307E0FB7D7A68134404
:100EB00000221A70FB7D0133FB75FB7D0F2BF4D9EB
:100EC0003B681B7804331A46FB6813441A783B6A64
:100ED0001A7000BF1C37BD4680BC704780B487B015
:100EE00000AFF860B9601346FB710023BB8200239A
:100EF000FB750023FB7577E00023BB754FE0FB7D9E
:100F00005A00BB7D13441A46FB6813441B782F2BF1
:100F10001CD9FB7D5A00BB7D13441A46FB68134461
:100F20001B78392B12D8FB7D5A00BB7D13441A461F
:100F3000FB6813441A78FB7D5900BB7D0B441946AE
:100F4000FB680B44303AD2B21A7025E0FB7D5A00A0
:100F5000BB7D13441A46FB6813441B78402B1BD9F6
:100F6000FB7D5A00BB7D13441A46FB6813441B7873
:100F7000462B11D8FB7D5A00BB7D13441A46FB68F3
:100F800013441A78FB7D5900BB7D0B441946FB685E
:100F90000B44373AD2B21A70BB7D0133BB75BB7DAF
:100FA000012BACD90023BB82FB7D5B001A46FB689A
:100FB00013441B781B011BB2DBB21AB2FB7D5B0032
:100FC0000133F9680B441B781BB203F00F031BB20B
:100FD00013431BB2BB82FB7DBA681344BA8AD2B2F8
:100FE0001A70FB7D0133FB75FA7DFB799A4211D2B1
:100FF000FB7D5B001A46FB6813441B78002B7FF4D3
:101000007BAF07E0FB7DBA68134400221A70FB7DBA
:101010000133FB75FA7DFB799A42F3D300BF00BF21
:101020001C37BD4680BC704780B485B000AF786087
:101030000B46FB701346BB700023FB810AE07B7BF1
:101040007A6813441B789AB2FB891344FB817B7B3B
:1010500001337B737A7BFB789A42F0D300237B8148
:10106000BB789BB2FA89D31A7B817B89DBB2DB43E5
:10107000DBB29BB201337B817B89DBB2184614372C
:10108000BD4680BC7047000080B485B000AF034609
:10109000FB710023FB73FB795B09BB73FB793B2B73
:1010A0000CD8FB7903F01F03FB71FB79012202FAD4
:1010B00003F1064ABB7B42F8231001E00123FB73D6
:1010C000FB7B18461437BD4680BC704700E100E04A
:1010D00080B400AF034B044A1A6000BFBD4680BC19
:1010E000704700BF001002408000010080B485B04E
:1010F00000AF0346FB80FB88254AA2FB03235B0964
:101100009BB2BB73FB88224AA2FB031252096421E3
:1011100001FB02F29B1A9BB27B730023FB737B7B68
:101120001F2B2DD8BB7B032B1CD0032B25DC012BC5
:1011300002D0022B0BD020E0164B5B697A7B012199
:1011400001FA02F21146134A0B4353611AE0114BA4
:101150009B697A7B012101FA02F211460D4A0B4389
:1011600093610FE00B4BDB697A7B012101FA02F2FC
:101170001146084A0B43D36104E00123FB7301E0ED
:101180000123FB73FB7B18461437BD4680BC7047B8
:101190001F85EB510010024080B485B000AF0346BC
:1011A000FB80FB88274AA2FB03235B099BB2BB732E
:1011B000FB88244AA2FB03125209642101FB02F2BC
:1011C0009B1A9BB27B730023FB737B7B1F2B30D856
:1011D000BB7B032B12D0032B28DC012B02D0022B6C
:1011E00018D023E0184B5B697A7B012101FA02F2E7
:1011F000D2431146144A0B4053611CE0124BDB6989
:101200007A7B012101FA02F2D24311460E4A0B40C9
:10121000D36110E00C4B9B697A7B012101FA02F249
:10122000D2431146084A0B40936104E00123FB734B
:1012300001E00123FB73FB7B18461437BD4680BCDD
:10124000704700BF1F85EB510010024080B500AF12
:10125000FFF73EFFCA20FFF749FFCB20FFF746FF0D
:10126000CC20FFF743FF40F23D10FFF73FFFFFF7B1
:101270006DFC00F04DFA00211120FFF781FDFEF713
:101280007FFF0B4B1B7819460520FFF779FD642083
:10129000FFF7A2FA064B1B78002B0CBF012300239B
:1012A000DBB21A46024B1A70FFF718F9E9E700BFE4
:1012B000030000200D488546AFF300800C480D491F
:1012C0000D4A002302E0D458C4500433C4188C42A1
:1012D000F9D30A4A0A4C002301E013600432A24207
:1012E000FBD300F061FAFFF7B1FFFEE700500020EA
:1012F00000000020040000209018000804000020D6
:10130000CC000020FEE7000080B400AF054B1B6856
:10131000044A23F00403136000231846BD4680BC32
:10132000704700BF10E000E080B584B000AF786087
:1013300039600123FB73134B1B78002B1DD1002355
:10134000FB73104B01221A700F4B01221A703B687D
:10135000002B03D0386800F06FF801E00123FB7325
:101360007B686FF07F42934205D2084A7B685360E6
:1013700000F02EF801E00123FB73FB7B18461037C9
:10138000BD4680BDC5000020C400002010E000E084
:1013900080B582B000AF0023FB710B4B00221A70A6
:1013A0000A4B1B68094A23F001031360074B002214
:1013B0005A60064B00229A6000F02EF8FB7918461E
:1013C0000837BD4680BD00BFC500002010E000E02A
:1013D00080B582B000AF0023FB7100F00DF8054B23
:1013E0001B68044A43F001031360FB791846083771
:1013F000BD4680BD10E000E080B400AF054B1B6827
:10140000044A43F00203136000231846BD4680BC23
:10141000704700BF10E000E080B400AF054B1B68D0
:10142000044A23F00203136000231846BD4680BC23
:10143000704700BF10E000E080B485B000AF786076
:101440000023FB737B68002B03D0064A7B68136084
:1014500001E00123FB73FB7B18461437BD4680BCBB
:10146000704700BFC000002080B500AF084B1B785C
:10147000012B07D1FFF78CFF054B00221A70054B9B
:1014800000221A70044B1B68984700BF80BD00BF44
:10149000C4000020C5000020C000002080B400AFC0
:1014A000194B45229A60184BDB68174A23F4806376
:1014B000D360154BDB68144A23F48053D360124B7E
:1014C0001B69114A23F4805313610F4B1B690E4AA9
:1014D00023F4005313610C4BDB680B4A43F0040305
:1014E000D360094BDB68084A43F00803D360064B1E
:1014F000DB68054A43F40053D360034B00221A60B3
:1015000000BFBD4680BC70470038014080B485B044
:1015100000AF0346FB710023FB7300BF0A4B1B683F
:1015200003F08003002BF9D0074AFB795360064B88
:101530001B68054A23F080031360FB7B18461437B1
:10154000BD4680BC704700BF0038014080B584B004
:1015500000AF78600023BB730023FB7309E0FB7BC3
:101560007A6813441B781846FFF7D0FFFB7B0133E2
:10157000FB73FB7B7A6813441B78002BEFD1BB7B9A
:1015800018461037BD4680BD80B485B000AF786086
:101590000023FB73054B5B68DAB27B681A70FB7B38
:1015A00018461437BD4680BC704700BF0038014064
:1015B00080B586B000AF78600023BB757B68002BD8
:1015C0003FD00023FB751EE07968224BA3FB01236B
:1015D000DA0813469B0013445B00CA1AD2B297F98B
:1015E00017303032D2B218333B4403F80C2C7B68EE
:1015F000184AA2FB0323DB087B6097F91730DBB2A4
:101600000133DBB2FB757B68002BDDD197F9173016
:10161000DBB2013BDBB2FB750EE097F917301833F4
:101620003B4413F80C3C1846FFF770FF97F917304E
:10163000DBB2013BDBB2FB7597F91730002BECDA1C
:1016400002E03020FFF762FFBB7D18461837BD4629
:1016500080BD00BFCDCCCCCC80B483B000AF002324
:10166000FB71064BDB68054A43F02003D360FB792E
:1016700018460C37BD4680BC704700BF003801409B
:1016800080B483B000AF0023FB71064BDB68054AD2
:1016900023F02003D360FB7918460C37BD4680BC8D
:1016A000704700BF0038014080B485B000AF78605B
:1016B0000023FB737B68002B03D0064A7B68136012
:1016C00001E00323FB73FB7B18461437BD4680BC47
:1016D000704700BFC800002080B500AF0A4B1B68F0
:1016E00003F02003002B0CD0084B1B68002B02D00A
:1016F000064B1B689847044B1B68034A23F02003E2
:10170000136000BF80BD00BF00380140C80000204A
:1017100080B400AF194B45229A60184BDB68174A1A
:1017200023F48063D360154BDB68144A23F48053A1
:10173000D360124B1B69114A23F4805313610F4B82
:101740001B690E4A23F4005313610C4BDB680B4AF0
:1017500043F00403D360094BDB68084A43F00803F5
:10176000D360064BDB68054A43F40053D360034B58
:1017700000221A6000BFBD4680BC70470044004094
:1017800080B483B000AF0023FB71064BDB68054AD1
:1017900023F02003D360FB7918460C37BD4680BC8C
:1017A000704700BF0044004070B500260C4D0D4C42
:1017B000641BA410A64209D100F01AF800260A4DB5
:1017C0000A4C641BA410A64205D170BD55F8043B19
:1017D00098470136EEE755F8043B98470136F2E7A3
:1017E0008818000888180008881800088C18000855
:1017F000F8B500BFF8BC08BC9E467047F8B500BFFE
:08180000F8BC08BC9E467047CD
:101808000A0000004F4B00004E4F4B00424F4F5410
:101818000000000041434B464C4153480000000083
:101828000002010202090309040205020602070276
:10183800080209090A040B020C020D020E020F022B
:1018480010021102120213021402150216021702E4
:10185800180219021A021B021C021D021E021F0294
:101868002002210222022302240225022602270244
:10187800280229022A022B022C022D022E022F02F4
:0418880055010008FE
:04188C00310100081E
:041890000101010150
:04000005080012B528
:00000001FF
